{
  "_format": "hh-sol-artifact-1",
  "contractName": "chai",
  "sourceName": "contracts/Chai.sol",
  "abi": [
    {
      "inputs": [],
      "stateMutability": "payable",
      "type": "constructor"
    },
    {
      "inputs": [
        {
          "internalType": "string",
          "name": "name",
          "type": "string"
        },
        {
          "internalType": "string",
          "name": "message",
          "type": "string"
        }
      ],
      "name": "bayChai",
      "outputs": [],
      "stateMutability": "payable",
      "type": "function"
    },
    {
      "inputs": [],
      "name": "getMemos",
      "outputs": [
        {
          "components": [
            {
              "internalType": "string",
              "name": "name",
              "type": "string"
            },
            {
              "internalType": "string",
              "name": "message",
              "type": "string"
            },
            {
              "internalType": "uint256",
              "name": "timestamp",
              "type": "uint256"
            },
            {
              "internalType": "address",
              "name": "from",
              "type": "address"
            }
          ],
          "internalType": "struct chai.Memo[]",
          "name": "",
          "type": "tuple[]"
        }
      ],
      "stateMutability": "view",
      "type": "function"
    },
    {
      "inputs": [],
      "name": "owner",
      "outputs": [
        {
          "internalType": "address payable",
          "name": "",
          "type": "address"
        }
      ],
      "stateMutability": "view",
      "type": "function"
    }
  ],
  "bytecode": "0x608060405233600160006101000a81548173ffffffffffffffffffffffffffffffffffffffff021916908373ffffffffffffffffffffffffffffffffffffffff160217905550610c0b806100546000396000f3fe6080604052600436106100345760003560e01c80635a2eb77314610039578063865c5172146100555780638da5cb5b14610080575b600080fd5b610053600480360381019061004e919061059f565b6100ab565b005b34801561006157600080fd5b5061006a61023c565b604051610077919061081c565b60405180910390f35b34801561008c57600080fd5b5061009561041f565b6040516100a2919061085f565b60405180910390f35b600034116100ee576040517f08c379a00000000000000000000000000000000000000000000000000000000081526004016100e5906108d7565b60405180910390fd5b600160009054906101000a900473ffffffffffffffffffffffffffffffffffffffff1673ffffffffffffffffffffffffffffffffffffffff166108fc349081150290604051600060405180830381858888f19350505050158015610156573d6000803e3d6000fd5b50600060405180608001604052808481526020018381526020014281526020013373ffffffffffffffffffffffffffffffffffffffff16815250908060018154018082558091505060019003906000526020600020906004020160009091909190915060008201518160000190816101ce9190610b03565b5060208201518160010190816101e49190610b03565b506040820151816002015560608201518160030160006101000a81548173ffffffffffffffffffffffffffffffffffffffff021916908373ffffffffffffffffffffffffffffffffffffffff16021790555050505050565b60606000805480602002602001604051908101604052809291908181526020016000905b82821015610416578382906000526020600020906004020160405180608001604052908160008201805461029390610926565b80601f01602080910402602001604051908101604052809291908181526020018280546102bf90610926565b801561030c5780601f106102e15761010080835404028352916020019161030c565b820191906000526020600020905b8154815290600101906020018083116102ef57829003601f168201915b5050505050815260200160018201805461032590610926565b80601f016020809104026020016040519081016040528092919081815260200182805461035190610926565b801561039e5780601f106103735761010080835404028352916020019161039e565b820191906000526020600020905b81548152906001019060200180831161038157829003601f168201915b50505050508152602001600282015481526020016003820160009054906101000a900473ffffffffffffffffffffffffffffffffffffffff1673ffffffffffffffffffffffffffffffffffffffff1673ffffffffffffffffffffffffffffffffffffffff168152505081526020019060010190610260565b50505050905090565b600160009054906101000a900473ffffffffffffffffffffffffffffffffffffffff1681565b6000604051905090565b600080fd5b600080fd5b600080fd5b600080fd5b6000601f19601f8301169050919050565b7f4e487b7100000000000000000000000000000000000000000000000000000000600052604160045260246000fd5b6104ac82610463565b810181811067ffffffffffffffff821117156104cb576104ca610474565b5b80604052505050565b60006104de610445565b90506104ea82826104a3565b919050565b600067ffffffffffffffff82111561050a57610509610474565b5b61051382610463565b9050602081019050919050565b82818337600083830152505050565b600061054261053d846104ef565b6104d4565b90508281526020810184848401111561055e5761055d61045e565b5b610569848285610520565b509392505050565b600082601f83011261058657610585610459565b5b813561059684826020860161052f565b91505092915050565b600080604083850312156105b6576105b561044f565b5b600083013567ffffffffffffffff8111156105d4576105d3610454565b5b6105e085828601610571565b925050602083013567ffffffffffffffff81111561060157610600610454565b5b61060d85828601610571565b9150509250929050565b600081519050919050565b600082825260208201905092915050565b6000819050602082019050919050565b600081519050919050565b600082825260208201905092915050565b60005b8381101561067d578082015181840152602081019050610662565b60008484015250505050565b600061069482610643565b61069e818561064e565b93506106ae81856020860161065f565b6106b781610463565b840191505092915050565b6000819050919050565b6106d5816106c2565b82525050565b600073ffffffffffffffffffffffffffffffffffffffff82169050919050565b6000610706826106db565b9050919050565b610716816106fb565b82525050565b600060808301600083015184820360008601526107398282610689565b915050602083015184820360208601526107538282610689565b915050604083015161076860408601826106cc565b50606083015161077b606086018261070d565b508091505092915050565b6000610792838361071c565b905092915050565b6000602082019050919050565b60006107b282610617565b6107bc8185610622565b9350836020820285016107ce85610633565b8060005b8581101561080a57848403895281516107eb8582610786565b94506107f68361079a565b925060208a019950506001810190506107d2565b50829750879550505050505092915050565b6000602082019050818103600083015261083681846107a7565b905092915050565b6000610849826106db565b9050919050565b6108598161083e565b82525050565b60006020820190506108746000830184610850565b92915050565b600082825260208201905092915050565b7f706c656173652070617920677265746572207468616e20302065746865722000600082015250565b60006108c1601f8361087a565b91506108cc8261088b565b602082019050919050565b600060208201905081810360008301526108f0816108b4565b9050919050565b7f4e487b7100000000000000000000000000000000000000000000000000000000600052602260045260246000fd5b6000600282049050600182168061093e57607f821691505b602082108103610951576109506108f7565b5b50919050565b60008190508160005260206000209050919050565b60006020601f8301049050919050565b600082821b905092915050565b6000600883026109b97fffffffffffffffffffffffffffffffffffffffffffffffffffffffffffffffff8261097c565b6109c3868361097c565b95508019841693508086168417925050509392505050565b6000819050919050565b6000610a006109fb6109f6846106c2565b6109db565b6106c2565b9050919050565b6000819050919050565b610a1a836109e5565b610a2e610a2682610a07565b848454610989565b825550505050565b600090565b610a43610a36565b610a4e818484610a11565b505050565b5b81811015610a7257610a67600082610a3b565b600181019050610a54565b5050565b601f821115610ab757610a8881610957565b610a918461096c565b81016020851015610aa0578190505b610ab4610aac8561096c565b830182610a53565b50505b505050565b600082821c905092915050565b6000610ada60001984600802610abc565b1980831691505092915050565b6000610af38383610ac9565b9150826002028217905092915050565b610b0c82610643565b67ffffffffffffffff811115610b2557610b24610474565b5b610b2f8254610926565b610b3a828285610a76565b600060209050601f831160018114610b6d5760008415610b5b578287015190505b610b658582610ae7565b865550610bcd565b601f198416610b7b86610957565b60005b82811015610ba357848901518255600182019150602085019450602081019050610b7e565b86831015610bc05784890151610bbc601f891682610ac9565b8355505b6001600288020188555050505b50505050505056fea2646970667358221220de05a980f7a86b1fd7b1931b6a2833e4c0ff33e9d096e76a3a59fe8d677a5fdc64736f6c63430008120033",
  "linkReferences": {},
  "deployedLinkReferences": {}
}